:100000000A128A11F82F00308A000408840A820735
:1000100000343F3406345B344F3466346D347D3401
:0600200007347F346F3449
:100C2E00F501F31F1B2E1C2E232EF209F309F20AD7
:100C3E000319F30A0130F500F11F262E272E2C2E54
:100C4E00F009F109F00A0319F10A70087104031989
:100C5E00312E322E5F2E0130F4003E2E0130031065
:100C6E00F00DF10DFF3E031D362E0130F407F11F7E
:100C7E00412E422E352E71087302031D482E700828
:100C8E007202031C4B2E4C2E522E7008F20271086B
:100C9E00031CF303F30201300310F10CF00CFF3EC2
:100CAE00031D532E0130F402031D5E2E5F2E422EC5
:100CBE0075080319632E642E692EF209F309F20AE0
:100CCE000319F30A7308F1007208F0000800FC0023
:100CDE000A30F0000030F1007C08F800F9017808C5
:100CEE00F2007908F3000A128A11C5260A128A1137
:100CFE007008FA000A30F0000030F1007C08F800AD
:100D0E00F9017808F2007908F3000A128A11172601
:100D1E000A128A117008FB008312031388017B08E4
:100D2E00013E84000A128A1103200A128A118700DA
:100D3E00023088002130F9007630F800F80BA52E2D
:100D4E00F90BA52E00008312031388017A08013EC9
:100D5E0084000A128A1103200A128A1187000130B8
:100D6E0088002130F9007630F800F80BBC2EF90B14
:100D7E00BC2E00008312031388010800F501F11F39
:100D8E00C92ECA2ED12EF009F109F00A0319F10A63
:100D9E000130F500F31FD42ED52EDC2EF209F30907
:100DAE00F20A0319F30A0130F506F601F70170088D
:100DBE0071040319E32EE42E192F0130F400F02EE6
:100DCE0001300310F00DF10DFF3E031DE82E013032
:100DDE00F407F11FF32EF42EE72E01300310F60D5B
:100DEE00F70DFF3E031DF52E71087302031D012F33
:100DFE0070087202031C042F052F0C2F7008F202CC
:100E0E007108031CF303F302761401300310F10C86
:100E1E00F00CFF3E031D0D2F0130F402031D182FA1
:100E2E00192FF42E750803191D2F1E2F232FF609C7
:100E3E00F709F60A0319F70A7708F1007608F000A9
:100E4E0008008316031788018901831603130514FE
:100E5E008514051587018801831203138501870107
:100E6E00880126080A128A116E260A128A11831226
:100E7E0003130518432F442F672F023083120313D9
:100E8E00A2004530A100A930A000A00B4C2FA10B51
:100E9E004C2FA20B4C2F831203130518572F582FCC
:100EAE00672F0130A500612F26080A128A116E26BF
:100EBE000A128A1183120313051C662F672F5B2FEC
:100ECE0085186A2F6B2F8D2F023083120313A20009
:100EDE004530A100A930A000A00B732FA10B732FDA
:100EEE00A20B732F8312031385187E2F7F2F8D2F46
:100EFE00A501872F26080A128A116E260A128A1158
:100F0E0083120313851C8C2F8D2F812F0519902F83
:100F1E00912FB42F023083120313A2004530A1008B
:100F2E00A930A000A00B992FA10B992FA20B992FDE
:100F3E00831203130519A42FA52FB42F0130A5007A
:100F4E00AE2F26080A128A116E260A128A118312F1
:100F5E000313051DB32FB42FA82F2503031DB82F80
:100F6E00B92F382FA301A40126080A128A116E2662
:100F7E000A128A1183120313051CC62FC72FDF2FE7
:100F8E00851CCA2FCB2FDF2F0519CE2FCF2FD02F99
:100F9E00DF2F0130A3070318A40A0030A407003086
:100FAE002402323003192302031CDE2FDF2FBB2F46
:100FBE00051CE22FE32F382F851CE62FE72F382F45
:100FCE00051DEA2FEB2F382F0130A6073C302602E5
:100FDE00031CF22FF32F382FA601382F0A128A1175
:100FEE00002883120313A501A60183010A128A1198
:020FFE00282F9A
:02400E00F2209E
:00000001FF
