:100000000A128A11F82F00308A000408840A820735
:100010000034C034F934A434B03499349234823486
:06002000F8348034903436
:100CB2008312031308148814081588150800831674
:100CC2000317880189018316031387018801FF3006
:100CD2008312031387000A128A1159260A128A11F3
:100CE2000800F0018312031320080A128A110B274D
:100CF2000A128A11F001F00A8312031321080A1260
:100D02008A110B270A128A110230F0008312031390
:100D120022080A128A110B270A128A110330F000E4
:100D22008312031323080A128A110B270A128A114B
:100D320008007708780403199F2EA02ECD2E0130CB
:100D4200FB00AC2E01300310F70DF80DFF3E031D22
:100D5200A42E0130FB07F81FAF2EB02EA32E780869
:100D62007A02031DB62E77087902031CB92EBA2E19
:100D7200C02E7708F9027808031CFA03FA02013040
:100D82000310F80CF70CFF3E031DC12E0130FB02CD
:100D9200031DCC2ECD2EB02E7A08F8007908F7006C
:100DA20008000A128A1160260A128A11831203139A
:100DB200A401A5010A128A118A270A128A11FC01CA
:100DC200FD010A128A1172260A128A110130FC07E9
:100DD2000318FD0A0030FD0700307D027830031948
:100DE2007C02031CF52EF62EE22E01308312031331
:100DF200A4070318A50A0030A507273025021030E2
:100E020003192402031C062F072FDB2ED72E0A12EA
:100E12008A110028F3000A128A1159260A128A112D
:100E22007308013E84000A128A1103200A128A11F1
:100E32008312031387007008031D202F212F232FF5
:100E42000810392F7003031D272F282F2A2F8810EF
:100E5200392F02307006031D2F2F302F322F081129
:100E6200392F03307006031D372F382F392F881181
:100E72000D30F200FB30F100F10B3D2FF20B3D2F54
:100E8200422F0A128A1159260A128A110800F40105
:100E9200F5017008710403194F2F502F852F01306F
:100EA200F6005C2F01300310F00DF10DFF3E031D23
:100EB200542F0130F607F11F5F2F602F532F01309F
:100EC2000310F40DF50DFF3E031D612F710873022F
:100ED200031D6D2F70087202031C702F712F782F63
:100EE2007008F2027108031CF303F3027414013058
:100EF2000310F10CF00CFF3E031D792F0130F602B6
:100F0200031D842F852F602F7508F1007408F000EF
:100F120008000A30F7000030F80083120313250896
:100F2200FA002408F9000A128A119A260A128A1172
:100F3200770883120313A3000A30F7000030F80089
:100F42000A30F0000030F1002508F3002408F20016
:100F52000A128A1148270A128A117108FA007008C7
:100F6200F9000A128A119A260A128A117708831244
:100F72000313A2000A30F7000030F8006430F000DA
:100F82000030F1002508F3002408F2000A128A1149
:100F920048270A128A117108FA007008F9000A1229
:100FA2008A119A260A128A11770883120313A10062
:100FB2000A30F7000030F800E830F0000330F100AA
:100FC2002508F3002408F2000A128A1148270A129F
:100FD2008A117108FA007008F9000A128A119A2619
:100FE2000A128A11770883120313A00008008312E1
:0E0FF2000313A401A50183010A128A11D22E55
:02400E00E220AE
:00000001FF
