:100000000A128A11FB2F00308A000408840A820732
:0A00100000341834243442348134E3
:100DEA0083160317880189018316031388010614E1
:100DFA008312031388018316031381130800F30176
:100E0A007308013E84000A128A1103200A128A1109
:100E1A008312031388000D30F200AF30F100B630B0
:100E2A00F000F00B162FF10B162FF20B162F000005
:100E3A000130F30704307302031C242F252F052FDA
:100E4A0008000730F300F31F2B2F2C2F2D2F4D2FC7
:100E5A000130F000730A332F0310F00DFF3E031D1B
:100E6A00312F70088312031388000D30F200AF305F
:100E7A00F100B630F000F00B402FF10B402FF20BCF
:100E8A00402F0000FF30F307F31F4C2F4D2F2D2F5B
:100E9A0008000330F3007308013E84000A128A1125
:100EAA0003200A128A118312031388000D30F200FC
:100EBA00AF30F100B630F000F00B612FF10B612F6B
:100ECA00F20B612F00007308031D6C2F6D2F6E2F1C
:100EDA00762F0130F30204307302031C752F762F2C
:100EEA00502F0800F30108307302031C7D2F7E2F58
:100EFA007F2FA12F0130F000730A852F0310F00D08
:100F0A00FF3E031D832F70088312031388000D30E0
:100F1A00F200AF30F100B630F000F00B922FF10B77
:100F2A00922FF20B922F00000130F3070830730260
:100F3A00031CA02FA12F7F2F08000A128A11F52661
:100F4A000A128A11831203130618AC2FAD2FD02F61
:100F5A00C330F500CD30F400F40BB12FF50BB12FEF
:100F6A00831203130618BA2FBB2FD02F0130F607AE
:100F7A0004307602031CC22FC32FC42FF601061CAD
:100F8A00C72FC82FC42FC330F500CD30F400F40B9F
:100F9A00CC2FF50BCC2F7608031DD42FD52FDB2FA2
:100FAA000A128A1177270A128A11A72F7603031DBC
:100FBA00DF2FE02FE62F0A128A1126270A128A113A
:100FCA00A72F02307606031DEB2FEC2FF22F0A1201
:100FDA008A1104270A128A11A72F0A128A114E2788
:100FEA000A128A11A72F0A128A110028F601830110
:060FFA000A128A11A22F69
:02400E00F2209E
:00000001FF
