:100000000A128A11EC2FFF1B0D2883137F18831708
:100010000008840A0319FF0A080000308A00040857
:10002000840A8207003448346F34723461343A34BD
:10003000203425343034323464343A342534303486
:10004000323464342034253473340034533461340E
:100050006E347434613420344D3461347234743409
:100060006134003428346E3475346C346C34293483
:10007000003461342E346D342E34003470342E3418
:060080006D342E34003443
:10020800080064008001840A040603190034040607
:1002180006298316031788018901831603138801A9
:1002280089018312031388018901080083120313CB
:1002380089145330F000F00B1F298312031389101F
:100248005330F000F00B26290800F200F030720558
:10025800F1008312031308080F39710488000A1289
:100268008A111A210A128A110800F71B3C293D2914
:100278003E2949297609F8007709F900F80A03198F
:10028800F90A7808F6007908F7000800F7007703FC
:10029800031D4F29502958297608803E0A128A11D1
:1002A8007F210A128A115F297608C03E0A128A1134
:1002B8007F210A128A110800F4008312031309141B
:1002C80074080A128A1129210A128A117408F30083
:1002D80003300310F30DFF3E031D6D290310730D4A
:1002E8000A128A1129210A128A11A630F300F30B87
:1002F8007B2900000800F500831203130910750814
:100308000A128A1129210A128A117508F30003308A
:100318000310F30DFF3E031D8C290310730D0A1201
:100328008A1129210A128A110D30F400FB30F300DA
:10033800F30B9C29F40B9C29A12908004F30831248
:100348000313D6004D08D7000030D800D901DA01D0
:10035800E001E1015730C8000030C9004E08CA006A
:100368005630CB000A128A11EA210A128A11831226
:10037800031359084D07D5005508840083138001DD
:100388000800F401F501701CCA29CB29D12972088B
:10039800F4070318F50A7308F50701300310F20D86
:1003A800F30DFF3E031DD22901300310F10CF00CB0
:1003B800FF3E031DD92970087104031DE429E529AE
:1003C800C7297508F1007408F000080083120313A8
:1003D8004A08CC00FE294808BB004908BC004C303C
:1003E800BD004B08BE000030BF000A128A11CE269D
:1003F8000A128A11831203134C0884000A128A1104
:100408000D200A128A11003A031D0B2A0C2AEF2923
:10041800C801C9010800242A7608FF00750884006D
:100428000A128A1103200A128A110A128A116021FB
:100438000A128A110130F5070318F60A0030F60788
:10044800760883120313FF00750884000A128A11C4
:1004580003200A128A11003A031D332A342A102A6B
:10046800080083120313A601A701522A2508A30036
:10047800A4012308F0002408F1002108F200220852
:10048800F3000A128A1111240A128A110130831208
:100498000313A6070318A70A0030A7072608200792
:1004A800A3002308840083130008A5002508031D62
:1004B8005E2A5F2A3A2A08008230F700DD30F6000B
:1004C800F60B642AF70B642A692A30300A128A115B
:1004D80029210A128A112130F7007630F600F60B2E
:1004E800732AF70B732A000030300A128A11292167
:1004F8000A128A11F930F600F60B802A832A303066
:100508000A128A1129210A128A1120300A128A1124
:1005180029210A128A1128300A128A117F210A1207
:100528008A110C300A128A117F210A128A110630A8
:100538000A128A117F210A128A1101300A128A11BD
:100548007F210A128A110D30F700FB30F600F60BF6
:10055800AB2AF70BAB2AB02A0800831203136A1CD4
:10056800B62AB72AC22A2A08A0002808A100290802
:10057800A2000A128A1135220A128A118312031361
:10058800AC1FC72AC82ACA2AAB01AC01AD01AE010B
:10059800E42A2030F0000030F10083120313280809
:1005A800F2002908F3000A128A1111240A128A118A
:1005B800013083120313AD070318AE0A0030AE07EB
:1005C8002E08803AFD002C08803A7D02031DEE2A91
:1005D8002B082D02031CF12AF22ACD2A83120313B9
:1005E8006A18F72AF82A032B2A08A0002808A1006D
:1005F8002908A2000A128A1135220A128A11080053
:10060800FA01FB01760884008313000884000A12AB
:100618008A110D200A128A112A3A031D142B152B50
:10062800412B760884000130800777088400000891
:10063800F80002308007780884000008FA00840A6D
:100648000008FB00522B7B08F1007A08F0000A3002
:10065800F2000030F3000A128A11C5210A128A1129
:1006680079087007FA000030031801307107FB00A1
:100678007608840001308313800776088400000818
:1006880084000A128A110D200A128A11D03EF9003C
:100698000A307902031C512B522B272B7B08F700B9
:1006A8007A08F6000800F501F31F5B2B5C2B632B1F
:1006B800F209F309F20A0319F30A0130F500F11FF0
:1006C800662B672B6C2BF009F109F00A0319F10A64
:1006D800700871040319712B722B9F2B0130F400E1
:1006E8007E2B01300310F00DF10DFF3E031D762B1C
:1006F8000130F407F11F812B822B752B71087302CF
:10070800031D882B70087202031C8B2B8C2B922BD9
:100718007008F2027108031CF303F302013003109E
:10072800F10CF00CFF3E031D932B0130F402031D66
:100738009E2B9F2B822B75080319A32BA42BA92B67
:10074800F209F309F20A0319F30A7308F1007208AF
:10075800F0000800F501F11FB22BB32BBA2BF009FA
:10076800F109F00A0319F10A0130F500F31FBD2B56
:10077800BE2BC52BF209F309F20A0319F30A01305B
:10078800F506F601F701700871040319CC2BCD2B7F
:10079800022C0130F400D92B01300310F00DF10DBB
:1007A800FF3E031DD12B0130F407F11FDC2BDD2B9D
:1007B800D02B01300310F60DF70DFF3E031DDE2B85
:1007C80071087302031DEA2B70087202031CED2BDB
:1007D800EE2BF52B7008F2027108031CF303F302E9
:1007E800761401300310F10CF00CFF3E031DF62BBC
:1007F8000130F402031D012C022CDD2B75080319AE
:10080800062C072C0C2CF609F709F60A0319F70A27
:100818007708F1007608F0000800720873040319DD
:10082800162C172C1D2C72087304031D1C2C1D2C50
:10083800242C70080A128A1104210A128A11AA2C7F
:100848007208093EF40073080318013E003EF500E3
:10085800740884008317751C83130008F600840A43
:100868000008F7007608770403193B2C3C2C6E2C03
:100878007208093EF40073080318013E003EF500B3
:10088800740884008317751C83130008F600840A13
:100898000008F7007208023EF80073080318013ECA
:1008A800003EF900780884008317791C8313000838
:1008B800FA00840A0008FB007B08803AFC007708ED
:1008C800803A7C02031D6A2C76087A0203186D2C84
:1008D8006E2CAA2C720884008317731C83130008DB
:1008E800F400840A0008F5007208023EF600730856
:1008F8000318013E003EF700760884008317771C32
:10090800831300087407F9007508F8000318F80A3B
:10091800801F8F2CF8037808FA0079088400831761
:100928007A1C8313700880007208023EF400730872
:100938000318013E003EF500740884008317751CF7
:10094800831301308007840A0318800A08000730DF
:1009580083160313D4000130D3000130D2000A12E9
:100968008A110D210A128A110A128A1160220A12AA
:100978008A11F60101300A128A114A210A128A11D3
:100988001430F5008030F6000A128A110F220A127C
:100998008A11F60102300A128A114A210A128A11B2
:1009A800831603135208031DDA2CDB2CDE2C2C30A3
:1009B800D100E02C2730D100C03083120313CD00C2
:1009C8000130CE0083160313540883120313E20088
:1009D800E3016208CF006308D000831603135308AD
:1009E80083120313E400E5016408D1006508D2000E
:1009F80083160313510883120313D3000030031D19
:100A08008030D4000A128A11A2210A128A11C03039
:100A1800F5000030F6000A128A110F220A128A1114
:100A28001A3083120313E4005E30E3006D30E200F5
:100A3800E20B1C2DE30B1C2DE40B1C2D232D013088
:100A480083160313D3073C305302031C2C2D2D2D82
:100A5800CD2CD3010130D4070D305402031C352DA1
:100A6800362D382D0130D4000C305406031D3D2D91
:100A78003E2DCD2C52080319422D442D0130452D11
:100A88000030D200CD2C0A128A11002883120313D9
:100A98002208AB002308AC002B082C04031D552D9D
:100AA800562D5A2D2030AB008030AC00AD01AE0180
:100AB800632D0130AD070318AE0A0030AE072D08CC
:100AC8002B07A5002C08A4000318A40AAD1F6D2D40
:100AD800A403831203132408A6002608FF00250890
:100AE80084000A128A1103200A128A11003A031D8F
:100AF8007E2D7F2D5D2D2E08A8002D08A7006708E4
:100B0800AA006608A9006A188A2D8B2DD02DA32D5E
:100B18002030F0000030F100831203132008F200A7
:100B28002108F3000A128A1111240A128A110130CD
:100B380083120313AD070318AE0A0030AE072E0860
:100B4800803AA4002A08803A2402031DAD2D290802
:100B58002D02031CB02DB12D8C2DD02D2C08FF009B
:100B68002B0884000A128A1103200A128A11A40091
:100B7800A5012408F0002508F1002008F20021084A
:100B8800F3000A128A1111240A128A110130831201
:100B98000313AB070318AC0AFF3083120313A7072C
:100BA8000318A80AFF30A807270A031DDF2D280A03
:100BB800031DDF2DE02DB22D6A1CE32DE42D0A2E36
:100BC800FC2D2030F0000030F100831203132008C0
:100BD800F2002108F3000A128A1111240A128A115C
:100BE800013083120313AD070318AE0A0030AE07B5
:100BF8002E08803AA4002A08803A2402031D062EF3
:100C080029082D02031C092E0A2EE52D08000130A3
:100C180083120313B500B21B122E142E0130152EA9
:100C28000030B8006708B7006608B600380803192E
:100C38001E2E1F2E352EFF30B6070318B70AFF30B9
:100C4800B7073808031D292E2A2E2F2E2B30B30064
:100C58000030B400332E2D30B3000030B400330818
:100C6800B8001F30B9000030BA0083160313BF0163
:100C78007C2EFF30B9070318BA0AFF30BA073908C3
:100C8800A03E84000A30F0000030F1003208F30082
:100C98003108F2000A128A1157230A128A117108C0
:100CA800F7007008F6000A128A1139210A128A110F
:100CB8007608303E8313800083120313B501FF309A
:100CC800B6070318B70AFF30B7070A30F00000303C
:100CD800F1003208F3003108F2000A128A11AE233B
:100CE8000A128A11710883120313B2007008B10046
:100CF80083123A08803AFF0080307F02031D862E57
:100D080001303902031C892E8A2EAA2E831203135E
:100D180031083204031D912E922E3D2E3508031DF5
:100D2800962E972E3D2E3708803AFF0080307F029E
:100D3800031DA02E01303602031CA32EA42EAA2EBA
:100D480083120313EA18A92EAA2E3D2E8312031329
:100D580038080319B02EB12EBD2EFF30B90703187D
:100D6800BA0AFF30BA073908A03E8400380883134E
:100D780080002F08A8003008A9003908A03EAA0062
:100D88003708AC003608AB000A128A11B1220A12E1
:100D98008A110800831203133D0884008313000896
:100DA80084000A128A110D200A128A11253A031D9D
:100DB800DE2EDF2ED22F3D08840001308007E601A9
:100DC800E7010030EA00FF30E800FF30E900C70122
:100DD800032FEA143D08840001308007032F0130F7
:100DE800C700032F3D088400000884000A128A11F6
:100DF8000D200A128A11303A0319ED2EF32E4708F6
:100E08000319072F082FF62E3D08F6003E08F700B5
:100E18000A128A1104230A128A117708831203130B
:100E2800E7007608E600E71F1A2F1B2F212F6A1408
:100E3800E609E709E60A0319E70A3D08840083136F
:100E48000008C600460884000A128A110D200A12FA
:100E58008A11643A0319312F322F3E2F4608840035
:100E68000A128A110D200A128A11693A031D3D2FB0
:100E78003E2F622F3E08840083173F1C831300080F
:100E8800C000023080074008840083130008C200B5
:100E9800840A0008C3003D0884004608013E80001B
:100EA8003B08AF003C08B0004308B2004208B1005C
:100EB8000A128A110B260A128A11EB2FC7013D0864
:100EC8008400000884000A128A110D200A128A116F
:100ED800733A031D702F712F782F3D08840001305D
:100EE80080070130C700A92F3D088400000884004E
:100EF8000A128A110D200A128A116C3A031D852FD5
:100F0800862FA92F3D0884000008013E84000A129C
:100F18008A110D200A128A116C3A031D942F952FFD
:100F2800A92F3D0884000008023E84000A128A1195
:100F38000D200A128A11733A031DA32FA42FA92F7B
:100F48003D08840003308007752F47080319AD2F2B
:100F5800AE2FCA2F3B08A0003C08A1003E08840021
:100F680083173F1C83130008C00002308007400825
:100F7800840083130008A200840A00088403A300E5
:100F88000A128A114A250A128A11EB2F83120313B7
:100F98003D088400013083138007EB2F3D0884004F
:100FA800000884000A128A110D200A128A11C00052
:100FB800C1014008F0004108F1003B08F2003C087C
:100FC800F3000A128A1111240A128A11CA2F080082
:100FD80083120313E601E701E801E901EA0183133B
:100FE800A0308400C0300A128A1105210A128A1121
:080FF80083010A128A11AB2CDF
:02400E00F2209E
:00000001FF
